:4000000000800020110000008D0300008D03000008B5044B1A6803F53F5302331A6000F0BDF900BFFA46004010B5054C237833B9044B13B10448AFF300800123237010BDA1
:400040004081FF1F0000000040230000084B10B51BB108490848AFF300800848036803B910BD074B002BFBD0BDE81040184700BF000000004481FF1F40230000C880FF1F4C
:4000800000000000000000002DE9F84362B600243CE0204601F0CCFD31A3D3E9002301F02DFE8046894600222F4B01F027FE00F033FB00222D4B01F06FFC00222C4B01F0C3
:4000C0001DFE00222B4B01F019FE06460F460022294B4046494601F011FE00F01DFB0022224B01F059FC0022214B01F007FE0022204B01F003FE02460B463046394601F09A
:400100004BFC02F0BDF81D4B18550134B4F5007FBFDB4FF4804341F6FF720121084600F0FFF9054600F0AAFA0446012302464FF4007100F0BDFA45F68332104989B2204625
:4001400000F0CAFA2146284600F06AFA0121284600F01EFA00F0D2F9FEE700BFAFF30080F1D4C853FB2119400000603F0000F03F000059400000E03F0000703F6081FF1F00
:40018000FEE700BFF0B40022174611E050F82760F3B226F0FF0608E001EB420511F812406D78A5550132013BDBB2002BF4D10137052FEBD9F0BC70470A4B1B78DBB203F0BC
:4001C0000701094A11701B09013213702023A2F23272137002F65B1213704422034B1A70704700BFCF0100496E5800407658004008B50A46002102F09AF808BD38B540F2EC
:40020000DF12244B1A80182202331A70022203F27E231A7008224FF040231A70032103F5007319701C4B1B78DBB21C490B701C4B1A8041F25122023B1A80002419250CE0E6
:40024000184B1B7803F0010343EA440404F003044FF4F07000F050FA013D0DB1032CEFD115B90320FFF78CFF0F4B4FF480721A8007221A7000220D490A7048200231087006
:400280001A700222033B1A70094A137843F00103137038BD8040004008010049A146004022420040254200400440004006400040A243004008B502F02FF808BD38B572B698
:4002C000244A137843F00403137000240CE0224D630019194A0011462A44084691882858FFF786FF0134E4B2092CF0D91B494FF09040FFF747FF04211948FFF779FF194AF4
:40030000137843F0020313701032137843F002031370082214491548FFF7CCFF082214491448FFF7C7FF144A137843F008031370124C61232370FFF761FF812323700122DC
:400340000F4B1A70FFF738FF0E220E490E48FFF7B1FF38BDE8460040482300001800004800760040035001402C0000481251004034000048325100402243004000480040EE
:4003800004000840A0430040B043004008B501F097FF03680C2B00D1FEE7FEE708B5104E104D16E029686B68AC68002204E051F8040B43F8040B0432A242F8D1E868002237
:4003C00003E0002143F8041B04328242F9D11035013E002EE6D101F079FFFFF755FEFEE7010000008825000008B5114A114B1A60114A136843F40073136000230AE0032B11
:4004000003D80E4A52F8231000E00D490D4A42F8231001332F2BF2D90B4B1A780B4B1A70084A0B4B1A60FFF749FF00F097F808BD0004FA050CED00E014ED00E00000000090
:400440008D0300000080FF1FBC760040C080FF1F08ED00E0054A137843F0080313701032137843F008031370704700BFA8430040054B1A7802F0FD021A701A7800F00200FE
:4004800010431870704700BF2C580040014B1870704700BF835B0040064B1B78C3F3810303F19243063393F83831DBB2024A1370704700BF2C5800400B46004008B5064B76
:4004C0001A7802F0F3021A701A7800F00C0010431870FFF7E1FF08BD2C58004010B50024054B1C7001331C700420FFF7E7FF2046FFF7BEFF10BD00BF2C58004008B5074B34
:400500001B7823B9FFF7EAFF0122044B1A70FFF7A1FF0020FFF7BAFF08BD00BF5C81FF1FF0B583B016461F460B4D00242C700194009423460A460146204600F07DF83A4668
:400540003146287800F052F80221287800F03CF8287803B0F0BD00BFCC80FF1F0B4A7F2313708021517007E0DA0002F1804202F5F042013BDBB21370002BF5D1DB0003F193
:40058000804303F5F04300221A707047D080FF1F172815D831B103010A495A5C42F020025A5405E0030107495A5C02F0DF025A540001044A835C43F00103835400207047DC
:4005C000012070471070004017280BD80001064A835C03F0F103490001F00E011943815400207047012070471070004041F6FF73994201D14FF4005141F6FF739A4201D100
:400600004FF40052172808D8C00000F1804000F5EC408180C280002070470120704700BF172805D8034B03EB0010417200207047012070471070004017281BD810B4C00083
:4006400000F1804404F5EC44D201D2B201F07F01114321709DF804201201D2B203F00F03134363709DF8083003F00F03A3700020E07001E00120704710BC704710B500F02B
:4006800043F80A4B5B78182B0BD9084A1478013B5370E30003F1804303F5F0431B78137000E0FF2400F034F8204610BDD080FF1F10F0800F0CD111F4704F0BD1C00000F17B
:4006C000804000F5F04001808270C37000207047012070470120704710F0800F08D1C00000F1804000F5F0408180C2800020704701207047000000000230800803D000BFAC
:4007000001380046FCD17047EFF3108072B6704780F31088704700BF30B5214A21F00043934287B01BDD1F4A934205DD02460B4601F030F907B030BD02AA00F035F800F00C
:40074000030001281ED0022811D0DDE9042300B3DDE9020100F040FA01F10041EAE7002300930022002300F053FF07B030BD01230093DDE90201DDE9042300F049FF01F145
:400780000041D7E7DDE90423DDE9020100F024FAD0E70124DDE90201009400F039FFC9E7FB21E93FFFFFEF7F2DE9F04F944C21F00047A7428FB040F381801446914A0E4643
:4007C000974226DC84A3D3E90023002940F3A08101F0E0F88C4B80469F42894600F083807FA3D3E9002301F0D5F802460B464046C4E90023494601F0CDF879A3D3E90023A4
:4008000001F0C8F80125C4E9020128460FB0BDE8F08F7E4A974240F383807D4A974258DC3D15A5F21645A7EB05518B46824601F0FFFC01F0FDF98046894642464B46504659
:400840005946CDE9088901F0A5F80022714B01F055FA8B46824601F0EBFC01F0E9F98046894642464B4650465946CDE90A8901F091F80022674B01F041FA00220023CDE901
:400880000C0101F0A3FC002800F06A81002340464946002201F09AFC002814BF012302235D480221019000912A46214608A800F0B7FA002EC0F24A81054606E0C2E90001D9
:4008C00000250024C2E90245002528460FB0BDE8F08F02460B4601F05DF80025C4E90201C4E90001F1E740A3D3E9002301F052F83FA3D3E9002306460F4601F04BF8024632
:400900000B463046C4E90023394601F043F838A3D3E9002301F03EF80125C4E90201D4E700F02CFF34A3D3E900238046894601F0E5F90022394B01F02FF801F079FC05465F
:4009400001F076F924A3D3E90023CDE9040101F0D5F902460B464046494601F01BF820A3D3E9002382468B46DDE9040101F0C6F91F2DCDE9020155DC294B6A1E53F82230C0
:400980009F424FD002460B465046594601F002F802460B4681468846C4E900234A4643465046594600F0F6FFDDE9022300F0F2FF02460B46002EC4E9022386DA4A4608F1FF
:4009C000004301F1004184E80C00E160A0606D427BE700BFAFF3008000004054FB21F93F3163621A61B4D03D0000601A61B4D03D7370032E8A19A33B83C8C96D305FE43F58
:400A0000FB21E93F7BD90240FB21F93FFB213941FFFFEF7F00007041042400000000E03F84230000DDE902235046594600F0B2FF3F15C1F30A53FB1A102B81468846C4E92F
:400A40000001ABDD58A3D3E90023DDE9040101F055F98046894602460B465046594600F099FFCDE9060102460B465046594600F091FF42464B4600F08DFF4DA3D3E90023AF
:400A800080468946DDE9040101F038F942464B4600F080FF02460B46CDE90201DDE9060100F078FF0B4602468846C1F30A517F1A312F8146C4E9002372DD3FA3D3E9002390
:400AC000DDE9040101F01AF98046894602460B46DDE9060100F05EFF02460B4682468B46DDE9060100F056FF42464B4600F052FF33A3D3E9002380468946DDE9040101F03B
:400B0000FDF842464B4600F045FFCDE9020139E700F042FF2E4B80469F42894622D02AA3D3E9002300F038FF02460B464046C4E90023494600F02EFF23A3D3E9002300F085
:400B40002BFF4FF0FF35C4E90201BEE66268E36802F1004203F1004345426260E360B4E603239DE610A3D3E9002300F015FF10A3D3E9002306460F4600F00EFF02460B46D5
:400B80003046C4E90023394600F004FF08A3D3E9002300F001FF4FF0FF35C4E9020194E6DDE906ABFAE600BF0000601A61B4D03D7370032E8A19A33B0000002E8A19A33B70
:400BC000C14920259A837B393163621A61B4D03DFB21F93F000000002DE9F04F21F00046B6F1795F85B00C4692469B4605466BDA01F01EFB002800F0E7802A462346284684
:400C0000214601F07BF874A3D3E900238046894601F074F872A3D3E9002300F0BDFE42464B4601F06BF870A3D3E9002300F0B2FE42464B4601F062F86DA3D3E9002300F020
:400C4000ABFE42464B4601F059F86BA3D3E9002300F0A0FE42464B4601F050F868A3D3E9002300F099FE42464B4601F047F8CDE900010022644B4046494601F03FF8DDE95E
:400C8000002306460F464046494601F037F85246804689465B462846214601F02FF802460B464046494600F075FE02460B463046394600F06FFE02460B460020534900F03F
:400CC00069FE05B0BDE8F08F02460B4601F016F841A3D3E900238046894601F00FF840A3D3E9002300F058FE42464B4601F006F83DA3D3E9002300F04DFE42464B4600F0B9
:400D0000FDFF3BA3D3E9002300F046FE42464B4600F0F4FF38A3D3E9002300F03BFE42464B4600F0EBFF36A3D3E9002300F034FE4B46424600F0E2FF354BCDE900019E4219
:400D400097DD344B00229E4238DCA6F5001300202E4916461F4600F01DFECDE902010022294B4046494600F0C9FF32463B4600F011FEDDE9002306460F464046494600F0B6
:400D8000BDFF5246804689465B462846214600F0B5FF02460B464046494600F0FBFD02460B463046394600F0F5FD02460B46DDE9020100F0EFFD05B0BDE8F08F164B00268C
:400DC000CDE90223154FCAE71049002005B0BDE8F08F00BFAFF30080D43888BEE9FAA8BDC4B1B4BD9EEE213EAD529C804F7E923E9015CB19A001FA3E7751C1166CC1563FEA
:400E00004C5555555555A53F0000E03F0000F03F3233D33F0000E93F0000E73F0000D23F2DE9F04F794CADF51D7D1F460B93D31E84FB0354DB17C3EBA403A69E744C23EA3D
:400E4000E37554F826406B1C26460994A3EB83037C1E0D95029402EBC3032D1B341904900A91089316D42C44013422AEA79F08E057F8250000F0DCFE0135A542E6E9020126
:400E800008D0002DF4DA013500200021A542E6E90201F6D1099B002B2FDB099B74AADDF8089002EBC30B0DF5E47A029B002BC0F295810B9B0026C3EB090824AB03EBC8089D
:400EC000049B0027A3F1080524AB03EBC904F5E9022374E8020100F011FF02460B463046394600F059FD444506460F46EFD1EAE90267DA4509F10109D7D1099B10A91D461A
:400F000003F18043023B9B001A1D0A440B440F920E939CAB03EBC503002D53E928672BDD9CAB03EBC504A83C0DF13C0A0DF5E47B0022384B3046394600F0E0FE01F078F9BE
:400F400000F076FE0022344B8046894600F0D6FE02460B463046394600F01CFD01F068F974E802234AF8040F4946404600F014FD5C4506460F46DBD1089C3046394622464F
:400F800000F08AFC00224FF07F5306460F4600F0B5FE00F0F9FB0022204B00F0AFFE02460B463046394600F0F5FC0F46064601F03FF9814600F03CFE02460B46304639467E
:400FC00000F0E8FC002C06460F4640F3EE80681E10AB53F82030C4F1180243FA02F101FA02F29B1AC4F1170810AA42F82030894443FA08F8B8F1000F3DDD002D09F101090B
:4010000040F3D382002214460FA911E0ABAAAA2A0C2500000000703E0000704100002040C3F180700BB108600124013295420DDD51F8043F002CF3D0C3F1FF13013203F59D
:401040007F4395420B604FF00104F1DC089B002B0DDD012B00F0B180022B08D16A1E10AB53F8223010A9C3F3150341F82230B8F1020F00F08180002200233046394601F088
:40108000A5F8002800F05B82099B05F1FF3B5B4510DC05F1804310AA013B0F9802EB8303002253F80419834242EA0102F9D1002A40F0B180099B10AA013B52F82330002B40
:4010C00040F071820E9A012352F8041901330029FAD0E9186A1C8A420C914BDC0D990B985118DB0001F180410593A79B05440139E80003EB810A24ABD20003EB000B74ABA5
:4011000013440193A2F10803069007934FF000095AF8040F00F08CFD029BEBE80201002B4FF000064FF000071BDB069B03EB0904079B09EB030824AB1C449844049BA3F136
:401140000805F5E9022374E8020100F0D7FD02460B463046394600F01FFC444506460F46EFD1019B09F10809E3E802670193059B9945CDD10C9DCCE632463B460020B049C1
:4011800000F008FC06460F46002C3FF474AF089A0020AB4900F080FB02460B463046394600F0F8FB06460F4665E710D16B1E10AA52F823304FEAE3581CE76A1E10AB53F8D3
:4011C000223010A9C3F3160341F822304FE700229C4B01F019F858B980464CE700260027EAE90267DA4509F101097FF45EAE84E6002D09F10109C8BF4FF002083FF702AFC2
:4012000032463B4600208E4900F0C4FB4FF0020806460F462FE7089A10AB53F82B30183ACDF81490CDF8048008926BB90BF18043013B10A901EB830353F804190BF1FF3B86
:40124000183A0029F8D00892089A00207C4900F023FBBBF1000F04460D46C0F2B6814FEACB030DF5E87810AA02EB8B0608EB03090493043609F1080756F8040D00F0D8FC1E
:4012800022462B4600F03AFD002267E902016E4B2046294600F032FDB84504460D46EBD14B46CDF818B09B460DF5987ACDF808A0DDF824A04FF00009BAF1000FC0F2268142
:4012C0005DA3D3E90023DFF884815D4600260027002403E0A14510DBF8E90223F5E8020100F00CFD02460B463046394600F054FB0134A24506460F46ECDA029BABF1080BF0
:4013000003EBC903C3E9006772AB5B4509F10109D2D1A69BDDF818B0DDF808A0032B00F28380DFE813F0D100950095000400BBF1000F40F35481049BCDF808B053449846E1
:40134000D3E90067D34658E9029A32463B464846514600F021FB04460D4602460B464846514600F017FB32463B4600F015FBC8E9000168E90245C34526462F46E3D1DA46CD
:40138000DDF808B0BBF1010F40F32981049B0DF59C7B53449846D3E90067994659E902343046CDE902341A463946234600F0F4FA04460D4602460B46DDE9020100F0EAFA05
:4013C00032463B4600F0E8FAC9E9000169E90245CB4526462F46E1D100231D4608F1080850AC184678E90223294600F0D5FA444503460D46F5D1019A002A00F0D880DAF8CC
:401400000440DAF80C200A9FDAF80010DAF8080005F1004504F1004402F100427D613B617C60FA603960B860059B03F007000DF51D7DBDE8F08F00BF00000040FB21F93F4E
:401440000000F03F0000E03F0000703E2025000000242146049D0835554475E90223204600F09AFA55450446F7D1019B002B50D00A9F01F100450B46DAE9000187E8300095
:40148000224600F087FABBF1000F03460D460DDD01241846FAE90223294600F07DFA0134A34503460D46F4DA019A0AB105F10045184629460A9BC3E90201059B03F00700DE
:4014C0000DF51D7DBDE8F08F00231C46049A0832924418467AE90223214600F05DFA0BF1FF3BBBF1FF3F03460C46F2D1019A0AB104F10044184621460A9BC3E90001059BA1
:4015000003F007000DF51D7DBDE8F08F00260027F3E626460F4622460A9C0B46DAE90001C4E9006700F036FABBF1000F03460D46AEDC184629460A9BC3E90201BDE7089B6A
:4015400030465A423946CDF81490CDF8048000F0A3F900222C4B06460F4600F055FE002840D00022294B3046394600F0C7FB00F05FFE044600F05CFB0022234B00F0BEFB93
:401580000B4602463946304600F004FA00F050FE089B05F1010B1833089310AB43F8250043F82B4050E6012393E500244EE51846DAE90067DAE9022329460A9DC5E9006761
:4015C000C5E90401C5E902232EE7A69B032B3FF62BAFDFE803F0151010020DF5987A00231D4608E73046394600F022FE10ABAB4643F8250028E6002421460DF5987A34E77F
:4016000000231C4672E700BF000070410000703E2DE9F04F21F00046B6F1795F85B00C4690469946054604DA00F002FE002800F085802A4623462846214600F05FFB0646CD
:401640000F4602460B462846214600F057FB3EA3D3E9002382468B463046394600F04EFB3BA3D3E9002300F095F932463B4600F045FB39A3D3E9002300F08EF932463B464F
:4016800000F03CFB36A3D3E9002300F083F932463B4600F033FB34A3D3E9002300F07CF90E9BCDE900019BB30022334B4046494600F024FBDDE90023CDE902015046594664
:4016C00000F01CFB02460B46DDE9020100F062F932463B4600F012FB42464B4600F05AF923A3D3E9002306460F465046594600F005FB02460B463046394600F04DF902466D
:401700000B462846214600F045F905B0BDE8F08F02460B463046394600F0F0FA14A3D3E9002300F037F952465B4600F0E7FA2A46234600F031F905B0BDE8F08F28462146B3
:4017400005B0BDE8F08F00BF7CD5CF5A3AD9E53DEB9C2B8AE6E55A3E7DFEB157E31DC73ED561C119A0012A3FA6F810111111813F495555555555C53F0000E03F21F00041D9
:40178000704700BF00000000C1F30A522DE9F843A2F2FF36132E0B4604460D46884607461CDC002E3FDB3A4A864642FA06F901EA0902024317D034A3D3E9002300F0ECF8C8
:4017C0000022002300F02AFD20B1002D40DB28EA0905002738462946BDE8F883332E06DDB6F5806F2FD020461946BDE8F883A2F213424FF0FF3929FA02F910EA090FF2D00C
:4018000021A3D3E9002300F0C7F80022002300F005FD0028DED0002D20DB454627EA090738462946D8E718A3D3E9002300F0B4F80022002300F0F2FC0028CBD0002D18DB8D
:4018400000273D46C6E702460B4600F0A5F8CCE74FF4801343FA06F6B044B8E7142E10D00123C6F1340603FA06F6371928BF9844D3E725F00042074B224318BF1D4600272A
:40188000A8E705F10108C8E79C7500883CE4377EFFFF0F000000F0BFF8B5C1F30A5604460D460B46174606BB21F00043034325D000222F4B00F022FA2E4A044697420D46CF
:4018C0000B462ADBC1F30A56363E40F2FE723E44964228DC002E12DD23F0FF4323F4E00343EA065520462946F8BD40F2FF729642EBD102460B4600F04FF8F8BDF8BD16F114
:40190000350F1DDA4CF250339F420CDC14A1D1E9000122462B4600F031F811A3D3E9002300F0ECF9F8BD22460FA1D1E900012B4600F024F80CA3D3E9002300F0DFF9F8BD08
:4019400023F0FF4323F4E003363643EA0655204629460022084B00F0D1F9F8BDAFF3008059F3F8C21F6EA5019C7500883CE4377E00005043B03CFFFF0000903C03F0004323
:4019800021F0004242EA0301704700BF81F0004102E000BF83F0004330B54FEA41044FEA430594EA050F08BF90EA020F1FBF54EA000C55EA020C7FEA645C7FEA655C00F0A5
:4019C000E2804FEA5454D4EB5555B8BF6D420CDD2C4480EA020281EA030382EA000083EA010180EA020281EA0303362D88BF30BD11F0004F4FEA01314FF4801C4CEA11317A
:401A000002D0404261EB410113F0004F4FEA03334CEA133302D0524263EB430394EA050F00F0A780A4F10104D5F1200E0DDB02FA0EFC22FA05F2801841F1000103FA0EF28D
:401A4000801843FA05F359410EE0A5F120050EF1200E012A03FA0EFC28BF4CF0020C43FA05F3C01851EBE37101F0004507D54FF0000EDCF1000C7EEB00006EEB0101B1F587
:401A8000801F1BD3B1F5001F0CD349085FEA30004FEA3C0C04F101044FEA445212F5800F80F09A80BCF1004F08BF5FEA500C50F1000041EB045141EA050130BD5FEA4C0CD8
:401AC000404141EB010111F4801FA4F10104E9D191F0000F04BF01460020B1FA81F308BF2033A3F10B03B3F120020CDA0C3208DD02F1140CC2F10C0201FA0CF021FA02F102
:401B00000CE002F11402D8BFC2F1200C01FA02F120FA0CFCDCBF41EA0C019040E41AA2BF01EB0451294330BD6FEA04041F3C1CDA0C340EDC04F11404C4F1200220FA04F0C0
:401B400001FA02F340EA030021FA04F345EA030130BDC4F10C04C4F1200220FA02F001FA04F340EA0300294630BD21FA04F0294630BD94F0000F83F4801306BF81F4801120
:401B80000134013D4EE77FEA645C18BF7FEA655C29D094EA050F08BF90EA020F05D054EA000C04BF1946104630BD91EA030F1EBF0021002030BD5FEA545C05D140004941C1
:401BC00028BF41F0004130BD14F580043CBF01F5801130BD01F0004545F0FE4141F470014FF0000030BD7FEA645C1ABF194610467FEA655C1CBF0B46024650EA013406BF9E
:401C000052EA033591EA030F41F4002130BD00BF90F0000F04BF0021704730B54FF4806404F132044FF000054FF0000150E700BF90F0000F04BF0021704730B54FF4806490
:401C400004F1320410F0004548BF40424FF000013EE700BF42004FEAE2014FEA31014FEA02701FBF12F07F4393F07F4F81F06051704792F0000F14BF93F07F4F704730B5B6
:401C80004FF4607401F0004521F0004120E700BF50EA010208BF704730B54FF000050AE050EA010208BF704730B511F0004502D5404261EB41014FF4806404F132045FEA89
:401CC000915C3FF4DCAE4FF003025FEADC0C18BF03325FEADC0C18BF033202EBDC02C2F1200300FA03FC20FA02F001FA03FE40EA0E0021FA02F11444C1E600BF70B54FF072
:401D0000FF0C4CF4E06C1CEA11541DBF1CEA135594EA0C0F95EA0C0F00F0DEF82C4481EA030621EA4C5123EA4C5350EA013518BF52EA033541F4801143F4801338D0A0FB38
:401D400002CE4FF00005E1FB02E506F00042E0FB03E54FF00006E1FB03569CF0000F18BF4EF0010EA4F1FF04B6F5007F64F5407404D25FEA4E0E6D4146EB060642EAC62110
:401D800041EA55514FEAC52040EA5E504FEACE2EB4F1FD0C88BFBCF5E06F1ED8BEF1004F08BF5FEA500E50F1000041EB045170BD06F0004646EA010140EA020081EA0301D8
:401DC000B4EB5C04C2BFD4EB0C0541EA045170BD41F480114FF0000E013C00F3AB8014F1360FDEBF002001F0004170BDC4F10004203C35DA0C341BDC04F11404C4F12005D0
:401E000000FA05F320FA04F001FA05F240EA020001F0004221F0004110EBD37021FA04F642EB06015EEA430E08BF20EAD37070BDC4F10C04C4F1200500FA04F320FA05F0FF
:401E400001FA04F240EA020001F0004110EBD37041F100015EEA430E08BF20EAD37070BDC4F1200500FA05F24EEA020E20FA04F301FA05F243EA020321FA04F001F000413F
:401E800021FA04F220EA020000EBD3705EEA430E08BF20EAD37070BD94F0000F0FD101F00046400041EB010111F4801F08BF013CF7D041EA060195F0000F18BF704703F02F
:401EC0000046520043EB030313F4801F08BF013DF7D043EA0603704794EA0C0F0CEA135518BF95EA0C0F0CD050EA410618BF52EA4306D1D181EA030101F000414FF0000014
:401F000070BD50EA410606BF1046194652EA430619D094EA0C0F02D150EA013613D195EA0C0F05D152EA03361CBF104619460AD181EA030101F0004141F0FE4141F4700143
:401F40004FF0000070BD41F0FE4141F4780170BD70B54FF0FF0C4CF4E06C1CEA11541DBF1CEA135594EA0C0F95EA0C0F00F0A7F8A4EB050481EA030E52EA03354FEA013145
:401F800000F088804FEA03334FF0805545EA131343EA12634FEA022245EA111545EA10654FEA00260EF000419D4208BF964244F1FD0404F5407402D25B084FEA3202B61AE6
:401FC00065EB03055B084FEA32024FF480104FF4002CB6EB020E75EB030E22BFB61A754640EA0C005B084FEA3202B6EB020E75EB030E22BFB61A754640EA5C005B084FEA33
:402000003202B6EB020E75EB030E22BFB61A754640EA9C005B084FEA3202B6EB020E75EB030E22BFB61A754640EADC0055EA060E18D04FEA051545EA16754FEA06164FEADE
:40204000C30343EA52734FEAC2025FEA1C1CC0D111F4801F0BD141EA00014FF000004FF0004CB6E711F4801F04BF01430020B4F1FD0C88BFBCF5E06F3FF6AFAEB5EB030C85
:4020800004BFB6EB020C5FEA500C50F1000041EB045170BD0EF0004E4EEA113114EB5C04C2BFD4EB0C0541EA045170BD41F480114FF0000E013C90E645EA060E8DE60CEA85
:4020C000135594EA0C0F08BF95EA0C0F3FF43BAF94EA0C0F0AD150EA01347FF434AF95EA0C0F7FF425AF104619462CE795EA0C0F06D152EA03353FF4FDAE1046194622E7FE
:4021000050EA410618BF52EA43067FF4C5AE50EA41047FF40DAF52EA43057FF4EBAE12E74FF0FF3C06E000BF4FF0010C02E000BF4FF0010C4DF804CD4FEA410C7FEA6C5C80
:402140004FEA430C18BF7FEA6C5C1BD001B050EA410C0CBF52EA430C91EA030F02BF90EA020F0020704710F1000F91EA030F58BF994208BF90422CBFD8176FEAE37040F0C8
:40218000010070474FEA410C7FEA6C5C02D150EA013C07D14FEA430C7FEA6C5CD6D152EA033CD3D05DF8040B704700BF8446104662468C461946634600E000BF01B5FFF749
:4021C000B7FF002848BF10F1000F01BD4DF808EDFFF7F4FF0CBF012000205DF808FB00BF4DF808EDFFF7EAFF34BF012000205DF808FB00BF4DF808EDFFF7E0FF94BF0120FF
:4022000000205DF808FB00BF4DF808EDFFF7CEFF94BF012000205DF808FB00BF4DF808EDFFF7C4FF34BF012000205DF808FB00BF4FEA410212F5001215D211D56FF47873D1
:40224000B3EB625212D94FEAC12343F0004343EA505311F0004F23FA02F018BF404270474FF00000704750EA013005D111F0004008BF6FF0004070474FF00000704700BF05
:402280004A0011D212F5001211D20DD56FF47873B3EB62520ED44FEAC12343F0004343EA505323FA02F070474FF00000704750EA013002D14FF0FF3070474FF00000704719
:4022C000014B1868704700BF3881FF1F0E4B70B51E460E4C0025E41AA410A54204D056F8253098470135F8E700F03CF9084B094C1E46E41AA4100025A54204D056F82530FA
:4023000098470135F8E770BD7025000070250000702500007825000010B5431E0A44914204D011F8014B03F8014FF8E710BD03460244934202D003F8011BFAE770470000D4
:402340000000000000000000005100401000205100401000405100403000C05100401000F0510040100000000140001000140140000800400140000A004C014000020050F0
:4023800001402000FB21F93FFB2109407CD91240FB2119407A6A1F407CD92240BBFD2540FB2129403A462C407A6A2F405C4731407CD932409C6B3440BBFD3540DB8F3740A8
:4023C000FB2139401BB43A403A463C405AD83D407A6A3F404C7E40405C4741406C1042407CD942408CA243409C6B4440AC344540BBFD4540CBC64640DB8F4740EB584840FD
:40240000FB21494083F9A200444E6E00FC291500D1572700DD34F50062DBC0003C999500419043006351FE00BBDEAB00B761C5003A6E2400D24D42004906E00009EA2E007F
:402440001C92D100EB1DFE0029B11C00E83EA700F535820044BB2E009CE98400B4267000417E5F00D6913900538339009CF439008B5F840028F9BD00F81F3B00DEFF970040
:402480000F980500112FEF000A5A8B006D1F6D00CF7E360009CB2700464FB7009E663F002DEA5F00BA277500E5EBC7003D7BF100F739070092528A00FB6BEA001FB15F001C
:4024C000085D8D00300356007BFC4600F0AB6B0020BCCF0036F49A00E3A91D005E619100081BE60085996500A0145F008D40680080D8FF0027734D0006063100CA561500B2
:40250000C9A873007BE260006B8CC000020000000300000004000000060000000000000000000040FB21F93F000000002D44743E000000809846F83C0000006051CC783BBB
:4025400000000080831BF0390000004020257A38000000802282E336000000001DF3693543000000F8B500BFF8BC08BC9E4670474D000000E9030000F8B500BFF8BC08BC13
:402580009E4670472900000098250000C880FF1F780000002001000000000000FF0000007F800000010000000000000000000000000000000000000000000000000000009C
:4025C0000000000000000000602500000000000000000000000000000000000000000000000000000000000000000000000000000000000000000000000000000000000056
:402600000000000000000000D880FF1F0000000000000000000000000000000000000000000000000000000000000000000000000000000000000000000000000000000024
:40264000000000000000000000000000000000000000000000000000000000000000000000000000000000000000000000000000000000000000000000000000000000005A
:40268000000000000000000000000000000000000000000000000000000000000000000000000000000000000000000000000000000000000000000000000000000000001A
:4026C00000000000000000000000000000000000000000000000000000000000000000000000000000000000000000000000000000000000000000000000000000000000DA
:402700000000000000000000000000000000000000000000000000000000000000000000000000000000000000000000000000000000000000000000000000000000000099
:020000040003F7
:0200000480007A
:400000000240014001410140014201400143014003480140015101403D80CE20A540A540A5402540A540C82010020000000B0B0000000000000000000000200000000000BE
:400040000000000000000000000000000000000000000000000000000000000000000000000000000000000000000000000000000000000000000000000000000000000080
:400080000000000000000000000000000000000000000000000000000000000000000000000000000000000000000000000000000000000000000000000000000000000040
:4000C0000000000000000000000000000000000000000000000000000000000000000000000000000000000000000000000000000000000000000000000000000000000000
:4001000000000000000000000000000000000000000000000000000000000000000000000000000000000000000000000000000000000000000000000000000000000000BF
:0200000490006A
:0400000000004005B7
:0200000490105A
:04000000BC90ACAF55
:0200000490303A
:02000000DB9291
:0200000490402A
:4000000000000000000000000000000000000000000000000000000000000000000000000000000000000000000000000000000000000000000000000000000000000000C0
:400040000000000000000000000000000000000000000000000000000000000000000000000000000000000000000000000000000000000000000000000000000000000080
:400080000000000000000000000000000000000000000000000000000000000000000000000000000000000000000000000000000000000000000000000000000000000040
:4000C0000000000000000000000000000000000000000000000000000000000000000000000000000000000000000000000000000000000000000000000000000000000000
:0200000490501A
:0C00000000012E16106900012E24EBFBFD
:00000001FF